{
  "_format": "hh-sol-artifact-1",
  "contractName": "Futurama",
  "sourceName": "contracts/mycontract.sol",
  "abi": [
    {
      "inputs": [],
      "stateMutability": "nonpayable",
      "type": "constructor"
    },
    {
      "anonymous": false,
      "inputs": [
        {
          "indexed": true,
          "internalType": "address",
          "name": "owner",
          "type": "address"
        },
        {
          "indexed": true,
          "internalType": "address",
          "name": "approved",
          "type": "address"
        },
        {
          "indexed": true,
          "internalType": "uint256",
          "name": "tokenId",
          "type": "uint256"
        }
      ],
      "name": "Approval",
      "type": "event"
    },
    {
      "anonymous": false,
      "inputs": [
        {
          "indexed": true,
          "internalType": "address",
          "name": "owner",
          "type": "address"
        },
        {
          "indexed": true,
          "internalType": "address",
          "name": "operator",
          "type": "address"
        },
        {
          "indexed": false,
          "internalType": "bool",
          "name": "approved",
          "type": "bool"
        }
      ],
      "name": "ApprovalForAll",
      "type": "event"
    },
    {
      "anonymous": false,
      "inputs": [
        {
          "indexed": true,
          "internalType": "address",
          "name": "previousOwner",
          "type": "address"
        },
        {
          "indexed": true,
          "internalType": "address",
          "name": "newOwner",
          "type": "address"
        }
      ],
      "name": "OwnershipTransferred",
      "type": "event"
    },
    {
      "anonymous": false,
      "inputs": [
        {
          "indexed": true,
          "internalType": "address",
          "name": "from",
          "type": "address"
        },
        {
          "indexed": true,
          "internalType": "address",
          "name": "to",
          "type": "address"
        },
        {
          "indexed": true,
          "internalType": "uint256",
          "name": "tokenId",
          "type": "uint256"
        }
      ],
      "name": "Transfer",
      "type": "event"
    },
    {
      "inputs": [
        {
          "internalType": "address",
          "name": "to",
          "type": "address"
        },
        {
          "internalType": "uint256",
          "name": "tokenId",
          "type": "uint256"
        }
      ],
      "name": "approve",
      "outputs": [],
      "stateMutability": "nonpayable",
      "type": "function"
    },
    {
      "inputs": [
        {
          "internalType": "address",
          "name": "owner",
          "type": "address"
        }
      ],
      "name": "balanceOf",
      "outputs": [
        {
          "internalType": "uint256",
          "name": "",
          "type": "uint256"
        }
      ],
      "stateMutability": "view",
      "type": "function"
    },
    {
      "inputs": [],
      "name": "count",
      "outputs": [
        {
          "internalType": "uint256",
          "name": "",
          "type": "uint256"
        }
      ],
      "stateMutability": "view",
      "type": "function"
    },
    {
      "inputs": [
        {
          "internalType": "uint256",
          "name": "tokenId",
          "type": "uint256"
        }
      ],
      "name": "getApproved",
      "outputs": [
        {
          "internalType": "address",
          "name": "",
          "type": "address"
        }
      ],
      "stateMutability": "view",
      "type": "function"
    },
    {
      "inputs": [
        {
          "internalType": "address",
          "name": "owner",
          "type": "address"
        },
        {
          "internalType": "address",
          "name": "operator",
          "type": "address"
        }
      ],
      "name": "isApprovedForAll",
      "outputs": [
        {
          "internalType": "bool",
          "name": "",
          "type": "bool"
        }
      ],
      "stateMutability": "view",
      "type": "function"
    },
    {
      "inputs": [
        {
          "internalType": "string",
          "name": "uri",
          "type": "string"
        }
      ],
      "name": "isContentOwned",
      "outputs": [
        {
          "internalType": "bool",
          "name": "",
          "type": "bool"
        }
      ],
      "stateMutability": "view",
      "type": "function"
    },
    {
      "inputs": [],
      "name": "name",
      "outputs": [
        {
          "internalType": "string",
          "name": "",
          "type": "string"
        }
      ],
      "stateMutability": "view",
      "type": "function"
    },
    {
      "inputs": [],
      "name": "owner",
      "outputs": [
        {
          "internalType": "address",
          "name": "",
          "type": "address"
        }
      ],
      "stateMutability": "view",
      "type": "function"
    },
    {
      "inputs": [
        {
          "internalType": "uint256",
          "name": "tokenId",
          "type": "uint256"
        }
      ],
      "name": "ownerOf",
      "outputs": [
        {
          "internalType": "address",
          "name": "",
          "type": "address"
        }
      ],
      "stateMutability": "view",
      "type": "function"
    },
    {
      "inputs": [
        {
          "internalType": "address",
          "name": "recipient",
          "type": "address"
        },
        {
          "internalType": "string",
          "name": "metadataURI",
          "type": "string"
        }
      ],
      "name": "payToMint",
      "outputs": [
        {
          "internalType": "uint256",
          "name": "",
          "type": "uint256"
        }
      ],
      "stateMutability": "payable",
      "type": "function"
    },
    {
      "inputs": [],
      "name": "renounceOwnership",
      "outputs": [],
      "stateMutability": "nonpayable",
      "type": "function"
    },
    {
      "inputs": [
        {
          "internalType": "address",
          "name": "to",
          "type": "address"
        },
        {
          "internalType": "string",
          "name": "uri",
          "type": "string"
        }
      ],
      "name": "safeMint",
      "outputs": [],
      "stateMutability": "nonpayable",
      "type": "function"
    },
    {
      "inputs": [
        {
          "internalType": "address",
          "name": "from",
          "type": "address"
        },
        {
          "internalType": "address",
          "name": "to",
          "type": "address"
        },
        {
          "internalType": "uint256",
          "name": "tokenId",
          "type": "uint256"
        }
      ],
      "name": "safeTransferFrom",
      "outputs": [],
      "stateMutability": "nonpayable",
      "type": "function"
    },
    {
      "inputs": [
        {
          "internalType": "address",
          "name": "from",
          "type": "address"
        },
        {
          "internalType": "address",
          "name": "to",
          "type": "address"
        },
        {
          "internalType": "uint256",
          "name": "tokenId",
          "type": "uint256"
        },
        {
          "internalType": "bytes",
          "name": "data",
          "type": "bytes"
        }
      ],
      "name": "safeTransferFrom",
      "outputs": [],
      "stateMutability": "nonpayable",
      "type": "function"
    },
    {
      "inputs": [
        {
          "internalType": "address",
          "name": "operator",
          "type": "address"
        },
        {
          "internalType": "bool",
          "name": "approved",
          "type": "bool"
        }
      ],
      "name": "setApprovalForAll",
      "outputs": [],
      "stateMutability": "nonpayable",
      "type": "function"
    },
    {
      "inputs": [
        {
          "internalType": "bytes4",
          "name": "interfaceId",
          "type": "bytes4"
        }
      ],
      "name": "supportsInterface",
      "outputs": [
        {
          "internalType": "bool",
          "name": "",
          "type": "bool"
        }
      ],
      "stateMutability": "view",
      "type": "function"
    },
    {
      "inputs": [],
      "name": "symbol",
      "outputs": [
        {
          "internalType": "string",
          "name": "",
          "type": "string"
        }
      ],
      "stateMutability": "view",
      "type": "function"
    },
    {
      "inputs": [
        {
          "internalType": "uint256",
          "name": "tokenId",
          "type": "uint256"
        }
      ],
      "name": "tokenURI",
      "outputs": [
        {
          "internalType": "string",
          "name": "",
          "type": "string"
        }
      ],
      "stateMutability": "view",
      "type": "function"
    },
    {
      "inputs": [
        {
          "internalType": "address",
          "name": "from",
          "type": "address"
        },
        {
          "internalType": "address",
          "name": "to",
          "type": "address"
        },
        {
          "internalType": "uint256",
          "name": "tokenId",
          "type": "uint256"
        }
      ],
      "name": "transferFrom",
      "outputs": [],
      "stateMutability": "nonpayable",
      "type": "function"
    },
    {
      "inputs": [
        {
          "internalType": "address",
          "name": "newOwner",
          "type": "address"
        }
      ],
      "name": "transferOwnership",
      "outputs": [],
      "stateMutability": "nonpayable",
      "type": "function"
    }
  ],
  "bytecode": "0x60806040523480156200001157600080fd5b506040518060400160405280600881526020017f4675747572616d610000000000000000000000000000000000000000000000008152506040518060400160405280600381526020017f415453000000000000000000000000000000000000000000000000000000000081525081600090816200008f919062000412565b508060019081620000a1919062000412565b505050620000c4620000b8620000ca60201b60201c565b620000d260201b60201c565b620004f9565b600033905090565b6000600760009054906101000a900473ffffffffffffffffffffffffffffffffffffffff16905081600760006101000a81548173ffffffffffffffffffffffffffffffffffffffff021916908373ffffffffffffffffffffffffffffffffffffffff1602179055508173ffffffffffffffffffffffffffffffffffffffff168173ffffffffffffffffffffffffffffffffffffffff167f8be0079c531659141344cd1fd0a4f28419497f9722a3daafe3b4186f6b6457e060405160405180910390a35050565b600081519050919050565b7f4e487b7100000000000000000000000000000000000000000000000000000000600052604160045260246000fd5b7f4e487b7100000000000000000000000000000000000000000000000000000000600052602260045260246000fd5b600060028204905060018216806200021a57607f821691505b60208210810362000230576200022f620001d2565b5b50919050565b60008190508160005260206000209050919050565b60006020601f8301049050919050565b600082821b905092915050565b6000600883026200029a7fffffffffffffffffffffffffffffffffffffffffffffffffffffffffffffffff826200025b565b620002a686836200025b565b95508019841693508086168417925050509392505050565b6000819050919050565b6000819050919050565b6000620002f3620002ed620002e784620002be565b620002c8565b620002be565b9050919050565b6000819050919050565b6200030f83620002d2565b620003276200031e82620002fa565b84845462000268565b825550505050565b600090565b6200033e6200032f565b6200034b81848462000304565b505050565b5b8181101562000373576200036760008262000334565b60018101905062000351565b5050565b601f821115620003c2576200038c8162000236565b62000397846200024b565b81016020851015620003a7578190505b620003bf620003b6856200024b565b83018262000350565b50505b505050565b600082821c905092915050565b6000620003e760001984600802620003c7565b1980831691505092915050565b6000620004028383620003d4565b9150826002028217905092915050565b6200041d8262000198565b67ffffffffffffffff811115620004395762000438620001a3565b5b62000445825462000201565b6200045282828562000377565b600060209050601f8311600181146200048a576000841562000475578287015190505b620004818582620003f4565b865550620004f1565b601f1984166200049a8662000236565b60005b82811015620004c4578489015182556001820191506020850194506020810190506200049d565b86831015620004e45784890151620004e0601f891682620003d4565b8355505b6001600288020188555050505b505050505050565b61327580620005096000396000f3fe60806040526004361061011f5760003560e01c8063715018a6116100a0578063b88d4fde11610064578063b88d4fde146103ec578063c87b56dd14610415578063d204c45e14610452578063e985e9c51461047b578063f2fde38b146104b85761011f565b8063715018a6146103195780638da5cb5b1461033057806395d89b411461035b5780639f1cabc614610386578063a22cb465146103c35761011f565b806323b872dd116100e757806323b872dd1461021d57806342842e0e14610246578063615fd9e21461026f5780636352211e1461029f57806370a08231146102dc5761011f565b806301ffc9a71461012457806306661abd1461016157806306fdde031461018c578063081812fc146101b7578063095ea7b3146101f4575b600080fd5b34801561013057600080fd5b5061014b60048036038101906101469190611dbe565b6104e1565b6040516101589190611e06565b60405180910390f35b34801561016d57600080fd5b506101766105c3565b6040516101839190611e3a565b60405180910390f35b34801561019857600080fd5b506101a16105d4565b6040516101ae9190611ee5565b60405180910390f35b3480156101c357600080fd5b506101de60048036038101906101d99190611f33565b610666565b6040516101eb9190611fa1565b60405180910390f35b34801561020057600080fd5b5061021b60048036038101906102169190611fe8565b6106ac565b005b34801561022957600080fd5b50610244600480360381019061023f9190612028565b6107c3565b005b34801561025257600080fd5b5061026d60048036038101906102689190612028565b610823565b005b610289600480360381019061028491906121b0565b610843565b6040516102969190611e3a565b60405180910390f35b3480156102ab57600080fd5b506102c660048036038101906102c19190611f33565b61096e565b6040516102d39190611fa1565b60405180910390f35b3480156102e857600080fd5b5061030360048036038101906102fe919061220c565b610a1f565b6040516103109190611e3a565b60405180910390f35b34801561032557600080fd5b5061032e610ad6565b005b34801561033c57600080fd5b50610345610aea565b6040516103529190611fa1565b60405180910390f35b34801561036757600080fd5b50610370610b14565b60405161037d9190611ee5565b60405180910390f35b34801561039257600080fd5b506103ad60048036038101906103a89190612239565b610ba6565b6040516103ba9190611e06565b60405180910390f35b3480156103cf57600080fd5b506103ea60048036038101906103e591906122ae565b610be1565b005b3480156103f857600080fd5b50610413600480360381019061040e919061238f565b610bf7565b005b34801561042157600080fd5b5061043c60048036038101906104379190611f33565b610c59565b6040516104499190611ee5565b60405180910390f35b34801561045e57600080fd5b50610479600480360381019061047491906121b0565b610c6b565b005b34801561048757600080fd5b506104a2600480360381019061049d9190612412565b610ca4565b6040516104af9190611e06565b60405180910390f35b3480156104c457600080fd5b506104df60048036038101906104da919061220c565b610d38565b005b60007f80ac58cd000000000000000000000000000000000000000000000000000000007bffffffffffffffffffffffffffffffffffffffffffffffffffffffff1916827bffffffffffffffffffffffffffffffffffffffffffffffffffffffff191614806105ac57507f5b5e139f000000000000000000000000000000000000000000000000000000007bffffffffffffffffffffffffffffffffffffffffffffffffffffffff1916827bffffffffffffffffffffffffffffffffffffffffffffffffffffffff1916145b806105bc57506105bb82610dbb565b5b9050919050565b60006105cf6008610e25565b905090565b6060600080546105e390612481565b80601f016020809104026020016040519081016040528092919081815260200182805461060f90612481565b801561065c5780601f106106315761010080835404028352916020019161065c565b820191906000526020600020905b81548152906001019060200180831161063f57829003601f168201915b5050505050905090565b600061067182610e33565b6004600083815260200190815260200160002060009054906101000a900473ffffffffffffffffffffffffffffffffffffffff169050919050565b60006106b78261096e565b90508073ffffffffffffffffffffffffffffffffffffffff168373ffffffffffffffffffffffffffffffffffffffff1603610727576040517f08c379a000000000000000000000000000000000000000000000000000000000815260040161071e90612524565b60405180910390fd5b8073ffffffffffffffffffffffffffffffffffffffff16610746610e7e565b73ffffffffffffffffffffffffffffffffffffffff16148061077557506107748161076f610e7e565b610ca4565b5b6107b4576040517f08c379a00000000000000000000000000000000000000000000000000000000081526004016107ab906125b6565b60405180910390fd5b6107be8383610e86565b505050565b6107d46107ce610e7e565b82610f3f565b610813576040517f08c379a000000000000000000000000000000000000000000000000000000000815260040161080a90612648565b60405180910390fd5b61081e838383610fd4565b505050565b61083e83838360405180602001604052806000815250610bf7565b505050565b6000600160098360405161085791906126a4565b908152602001604051809103902060009054906101000a900460ff1660ff16036108b6576040517f08c379a00000000000000000000000000000000000000000000000000000000081526004016108ad90612707565b60405180910390fd5b66b1a2bc2ec50000341015610900576040517f08c379a00000000000000000000000000000000000000000000000000000000081526004016108f790612773565b60405180910390fd5b600061090c6008610e25565b9050610918600861123a565b600160098460405161092a91906126a4565b908152602001604051809103902060006101000a81548160ff021916908360ff16021790555061095a8482611250565b6109648184611429565b8091505092915050565b6000806002600084815260200190815260200160002060009054906101000a900473ffffffffffffffffffffffffffffffffffffffff169050600073ffffffffffffffffffffffffffffffffffffffff168173ffffffffffffffffffffffffffffffffffffffff1603610a16576040517f08c379a0000000000000000000000000000000000000000000000000000000008152600401610a0d906127df565b60405180910390fd5b80915050919050565b60008073ffffffffffffffffffffffffffffffffffffffff168273ffffffffffffffffffffffffffffffffffffffff1603610a8f576040517f08c379a0000000000000000000000000000000000000000000000000000000008152600401610a8690612871565b60405180910390fd5b600360008373ffffffffffffffffffffffffffffffffffffffff1673ffffffffffffffffffffffffffffffffffffffff168152602001908152602001600020549050919050565b610ade611496565b610ae86000611514565b565b6000600760009054906101000a900473ffffffffffffffffffffffffffffffffffffffff16905090565b606060018054610b2390612481565b80601f0160208091040260200160405190810160405280929190818152602001828054610b4f90612481565b8015610b9c5780601f10610b7157610100808354040283529160200191610b9c565b820191906000526020600020905b815481529060010190602001808311610b7f57829003601f168201915b5050505050905090565b60006001600983604051610bba91906126a4565b908152602001604051809103902060009054906101000a900460ff1660ff16149050919050565b610bf3610bec610e7e565b83836115da565b5050565b610c08610c02610e7e565b83610f3f565b610c47576040517f08c379a0000000000000000000000000000000000000000000000000000000008152600401610c3e90612648565b60405180910390fd5b610c5384848484611746565b50505050565b6060610c64826117a2565b9050919050565b610c73611496565b6000610c7f6008610e25565b9050610c8b600861123a565b610c9583826118b4565b610c9f8183611429565b505050565b6000600560008473ffffffffffffffffffffffffffffffffffffffff1673ffffffffffffffffffffffffffffffffffffffff16815260200190815260200160002060008373ffffffffffffffffffffffffffffffffffffffff1673ffffffffffffffffffffffffffffffffffffffff16815260200190815260200160002060009054906101000a900460ff16905092915050565b610d40611496565b600073ffffffffffffffffffffffffffffffffffffffff168173ffffffffffffffffffffffffffffffffffffffff1603610daf576040517f08c379a0000000000000000000000000000000000000000000000000000000008152600401610da690612903565b60405180910390fd5b610db881611514565b50565b60007f01ffc9a7000000000000000000000000000000000000000000000000000000007bffffffffffffffffffffffffffffffffffffffffffffffffffffffff1916827bffffffffffffffffffffffffffffffffffffffffffffffffffffffff1916149050919050565b600081600001549050919050565b610e3c816118d2565b610e7b576040517f08c379a0000000000000000000000000000000000000000000000000000000008152600401610e72906127df565b60405180910390fd5b50565b600033905090565b816004600083815260200190815260200160002060006101000a81548173ffffffffffffffffffffffffffffffffffffffff021916908373ffffffffffffffffffffffffffffffffffffffff160217905550808273ffffffffffffffffffffffffffffffffffffffff16610ef98361096e565b73ffffffffffffffffffffffffffffffffffffffff167f8c5be1e5ebec7d5bd14f71427d1e84f3dd0314c0f7b2291e5b200ac8c7c3b92560405160405180910390a45050565b600080610f4b8361096e565b90508073ffffffffffffffffffffffffffffffffffffffff168473ffffffffffffffffffffffffffffffffffffffff161480610f8d5750610f8c8185610ca4565b5b80610fcb57508373ffffffffffffffffffffffffffffffffffffffff16610fb384610666565b73ffffffffffffffffffffffffffffffffffffffff16145b91505092915050565b8273ffffffffffffffffffffffffffffffffffffffff16610ff48261096e565b73ffffffffffffffffffffffffffffffffffffffff161461104a576040517f08c379a000000000000000000000000000000000000000000000000000000000815260040161104190612995565b60405180910390fd5b600073ffffffffffffffffffffffffffffffffffffffff168273ffffffffffffffffffffffffffffffffffffffff16036110b9576040517f08c379a00000000000000000000000000000000000000000000000000000000081526004016110b090612a27565b60405180910390fd5b6110c483838361193e565b6110cf600082610e86565b6001600360008573ffffffffffffffffffffffffffffffffffffffff1673ffffffffffffffffffffffffffffffffffffffff168152602001908152602001600020600082825461111f9190612a76565b925050819055506001600360008473ffffffffffffffffffffffffffffffffffffffff1673ffffffffffffffffffffffffffffffffffffffff16815260200190815260200160002060008282546111769190612aaa565b92505081905550816002600083815260200190815260200160002060006101000a81548173ffffffffffffffffffffffffffffffffffffffff021916908373ffffffffffffffffffffffffffffffffffffffff160217905550808273ffffffffffffffffffffffffffffffffffffffff168473ffffffffffffffffffffffffffffffffffffffff167fddf252ad1be2c89b69c2b068fc378daa952ba7f163c4a11628f55a4df523b3ef60405160405180910390a4611235838383611943565b505050565b6001816000016000828254019250508190555050565b600073ffffffffffffffffffffffffffffffffffffffff168273ffffffffffffffffffffffffffffffffffffffff16036112bf576040517f08c379a00000000000000000000000000000000000000000000000000000000081526004016112b690612b2a565b60405180910390fd5b6112c8816118d2565b15611308576040517f08c379a00000000000000000000000000000000000000000000000000000000081526004016112ff90612b96565b60405180910390fd5b6113146000838361193e565b6001600360008473ffffffffffffffffffffffffffffffffffffffff1673ffffffffffffffffffffffffffffffffffffffff16815260200190815260200160002060008282546113649190612aaa565b92505081905550816002600083815260200190815260200160002060006101000a81548173ffffffffffffffffffffffffffffffffffffffff021916908373ffffffffffffffffffffffffffffffffffffffff160217905550808273ffffffffffffffffffffffffffffffffffffffff16600073ffffffffffffffffffffffffffffffffffffffff167fddf252ad1be2c89b69c2b068fc378daa952ba7f163c4a11628f55a4df523b3ef60405160405180910390a461142560008383611943565b5050565b611432826118d2565b611471576040517f08c379a000000000000000000000000000000000000000000000000000000000815260040161146890612c28565b60405180910390fd5b806006600084815260200190815260200160002090816114919190612df4565b505050565b61149e610e7e565b73ffffffffffffffffffffffffffffffffffffffff166114bc610aea565b73ffffffffffffffffffffffffffffffffffffffff1614611512576040517f08c379a000000000000000000000000000000000000000000000000000000000815260040161150990612f12565b60405180910390fd5b565b6000600760009054906101000a900473ffffffffffffffffffffffffffffffffffffffff16905081600760006101000a81548173ffffffffffffffffffffffffffffffffffffffff021916908373ffffffffffffffffffffffffffffffffffffffff1602179055508173ffffffffffffffffffffffffffffffffffffffff168173ffffffffffffffffffffffffffffffffffffffff167f8be0079c531659141344cd1fd0a4f28419497f9722a3daafe3b4186f6b6457e060405160405180910390a35050565b8173ffffffffffffffffffffffffffffffffffffffff168373ffffffffffffffffffffffffffffffffffffffff1603611648576040517f08c379a000000000000000000000000000000000000000000000000000000000815260040161163f90612f7e565b60405180910390fd5b80600560008573ffffffffffffffffffffffffffffffffffffffff1673ffffffffffffffffffffffffffffffffffffffff16815260200190815260200160002060008473ffffffffffffffffffffffffffffffffffffffff1673ffffffffffffffffffffffffffffffffffffffff16815260200190815260200160002060006101000a81548160ff0219169083151502179055508173ffffffffffffffffffffffffffffffffffffffff168373ffffffffffffffffffffffffffffffffffffffff167f17307eab39ab6107e8899845ad3d59bd9653f200f220920489ca2b5937696c31836040516117399190611e06565b60405180910390a3505050565b611751848484610fd4565b61175d84848484611948565b61179c576040517f08c379a000000000000000000000000000000000000000000000000000000000815260040161179390613010565b60405180910390fd5b50505050565b60606117ad82610e33565b60006006600084815260200190815260200160002080546117cd90612481565b80601f01602080910402602001604051908101604052809291908181526020018280546117f990612481565b80156118465780601f1061181b57610100808354040283529160200191611846565b820191906000526020600020905b81548152906001019060200180831161182957829003601f168201915b505050505090506000611857611acf565b9050600081510361186c5781925050506118af565b6000825111156118a1578082604051602001611889929190613030565b604051602081830303815290604052925050506118af565b6118aa84611b0c565b925050505b919050565b6118ce828260405180602001604052806000815250611b74565b5050565b60008073ffffffffffffffffffffffffffffffffffffffff166002600084815260200190815260200160002060009054906101000a900473ffffffffffffffffffffffffffffffffffffffff1673ffffffffffffffffffffffffffffffffffffffff1614159050919050565b505050565b505050565b60006119698473ffffffffffffffffffffffffffffffffffffffff16611bcf565b15611ac2578373ffffffffffffffffffffffffffffffffffffffff1663150b7a02611992610e7e565b8786866040518563ffffffff1660e01b81526004016119b494939291906130a9565b6020604051808303816000875af19250505080156119f057506040513d601f19601f820116820180604052508101906119ed919061310a565b60015b611a72573d8060008114611a20576040519150601f19603f3d011682016040523d82523d6000602084013e611a25565b606091505b506000815103611a6a576040517f08c379a0000000000000000000000000000000000000000000000000000000008152600401611a6190613010565b60405180910390fd5b805181602001fd5b63150b7a0260e01b7bffffffffffffffffffffffffffffffffffffffffffffffffffffffff1916817bffffffffffffffffffffffffffffffffffffffffffffffffffffffff191614915050611ac7565b600190505b949350505050565b60606040518060400160405280600781526020017f697066733a2f2f00000000000000000000000000000000000000000000000000815250905090565b6060611b1782610e33565b6000611b21611acf565b90506000815111611b415760405180602001604052806000815250611b6c565b80611b4b84611bf2565b604051602001611b5c929190613030565b6040516020818303038152906040525b915050919050565b611b7e8383611250565b611b8b6000848484611948565b611bca576040517f08c379a0000000000000000000000000000000000000000000000000000000008152600401611bc190613010565b60405180910390fd5b505050565b6000808273ffffffffffffffffffffffffffffffffffffffff163b119050919050565b606060008203611c39576040518060400160405280600181526020017f30000000000000000000000000000000000000000000000000000000000000008152509050611d4d565b600082905060005b60008214611c6b578080611c5490613137565b915050600a82611c6491906131ae565b9150611c41565b60008167ffffffffffffffff811115611c8757611c86612085565b5b6040519080825280601f01601f191660200182016040528015611cb95781602001600182028036833780820191505090505b5090505b60008514611d4657600182611cd29190612a76565b9150600a85611ce191906131df565b6030611ced9190612aaa565b60f81b818381518110611d0357611d02613210565b5b60200101907effffffffffffffffffffffffffffffffffffffffffffffffffffffffffffff1916908160001a905350600a85611d3f91906131ae565b9450611cbd565b8093505050505b919050565b6000604051905090565b600080fd5b600080fd5b60007fffffffff0000000000000000000000000000000000000000000000000000000082169050919050565b611d9b81611d66565b8114611da657600080fd5b50565b600081359050611db881611d92565b92915050565b600060208284031215611dd457611dd3611d5c565b5b6000611de284828501611da9565b91505092915050565b60008115159050919050565b611e0081611deb565b82525050565b6000602082019050611e1b6000830184611df7565b92915050565b6000819050919050565b611e3481611e21565b82525050565b6000602082019050611e4f6000830184611e2b565b92915050565b600081519050919050565b600082825260208201905092915050565b60005b83811015611e8f578082015181840152602081019050611e74565b60008484015250505050565b6000601f19601f8301169050919050565b6000611eb782611e55565b611ec18185611e60565b9350611ed1818560208601611e71565b611eda81611e9b565b840191505092915050565b60006020820190508181036000830152611eff8184611eac565b905092915050565b611f1081611e21565b8114611f1b57600080fd5b50565b600081359050611f2d81611f07565b92915050565b600060208284031215611f4957611f48611d5c565b5b6000611f5784828501611f1e565b91505092915050565b600073ffffffffffffffffffffffffffffffffffffffff82169050919050565b6000611f8b82611f60565b9050919050565b611f9b81611f80565b82525050565b6000602082019050611fb66000830184611f92565b92915050565b611fc581611f80565b8114611fd057600080fd5b50565b600081359050611fe281611fbc565b92915050565b60008060408385031215611fff57611ffe611d5c565b5b600061200d85828601611fd3565b925050602061201e85828601611f1e565b9150509250929050565b60008060006060848603121561204157612040611d5c565b5b600061204f86828701611fd3565b935050602061206086828701611fd3565b925050604061207186828701611f1e565b9150509250925092565b600080fd5b600080fd5b7f4e487b7100000000000000000000000000000000000000000000000000000000600052604160045260246000fd5b6120bd82611e9b565b810181811067ffffffffffffffff821117156120dc576120db612085565b5b80604052505050565b60006120ef611d52565b90506120fb82826120b4565b919050565b600067ffffffffffffffff82111561211b5761211a612085565b5b61212482611e9b565b9050602081019050919050565b82818337600083830152505050565b600061215361214e84612100565b6120e5565b90508281526020810184848401111561216f5761216e612080565b5b61217a848285612131565b509392505050565b600082601f8301126121975761219661207b565b5b81356121a7848260208601612140565b91505092915050565b600080604083850312156121c7576121c6611d5c565b5b60006121d585828601611fd3565b925050602083013567ffffffffffffffff8111156121f6576121f5611d61565b5b61220285828601612182565b9150509250929050565b60006020828403121561222257612221611d5c565b5b600061223084828501611fd3565b91505092915050565b60006020828403121561224f5761224e611d5c565b5b600082013567ffffffffffffffff81111561226d5761226c611d61565b5b61227984828501612182565b91505092915050565b61228b81611deb565b811461229657600080fd5b50565b6000813590506122a881612282565b92915050565b600080604083850312156122c5576122c4611d5c565b5b60006122d385828601611fd3565b92505060206122e485828601612299565b9150509250929050565b600067ffffffffffffffff82111561230957612308612085565b5b61231282611e9b565b9050602081019050919050565b600061233261232d846122ee565b6120e5565b90508281526020810184848401111561234e5761234d612080565b5b612359848285612131565b509392505050565b600082601f8301126123765761237561207b565b5b813561238684826020860161231f565b91505092915050565b600080600080608085870312156123a9576123a8611d5c565b5b60006123b787828801611fd3565b94505060206123c887828801611fd3565b93505060406123d987828801611f1e565b925050606085013567ffffffffffffffff8111156123fa576123f9611d61565b5b61240687828801612361565b91505092959194509250565b6000806040838503121561242957612428611d5c565b5b600061243785828601611fd3565b925050602061244885828601611fd3565b9150509250929050565b7f4e487b7100000000000000000000000000000000000000000000000000000000600052602260045260246000fd5b6000600282049050600182168061249957607f821691505b6020821081036124ac576124ab612452565b5b50919050565b7f4552433732313a20617070726f76616c20746f2063757272656e74206f776e6560008201527f7200000000000000000000000000000000000000000000000000000000000000602082015250565b600061250e602183611e60565b9150612519826124b2565b604082019050919050565b6000602082019050818103600083015261253d81612501565b9050919050565b7f4552433732313a20617070726f76652063616c6c6572206973206e6f7420746f60008201527f6b656e206f776e6572206e6f7220617070726f76656420666f7220616c6c0000602082015250565b60006125a0603e83611e60565b91506125ab82612544565b604082019050919050565b600060208201905081810360008301526125cf81612593565b9050919050565b7f4552433732313a2063616c6c6572206973206e6f7420746f6b656e206f776e6560008201527f72206e6f7220617070726f766564000000000000000000000000000000000000602082015250565b6000612632602e83611e60565b915061263d826125d6565b604082019050919050565b6000602082019050818103600083015261266181612625565b9050919050565b600081905092915050565b600061267e82611e55565b6126888185612668565b9350612698818560208601611e71565b80840191505092915050565b60006126b08284612673565b915081905092915050565b7f4e465420616c7265616479206d696e7465642100000000000000000000000000600082015250565b60006126f1601383611e60565b91506126fc826126bb565b602082019050919050565b60006020820190508181036000830152612720816126e4565b9050919050565b7f4e65656420746f20706179206d6f726521000000000000000000000000000000600082015250565b600061275d601183611e60565b915061276882612727565b602082019050919050565b6000602082019050818103600083015261278c81612750565b9050919050565b7f4552433732313a20696e76616c696420746f6b656e2049440000000000000000600082015250565b60006127c9601883611e60565b91506127d482612793565b602082019050919050565b600060208201905081810360008301526127f8816127bc565b9050919050565b7f4552433732313a2061646472657373207a65726f206973206e6f74206120766160008201527f6c6964206f776e65720000000000000000000000000000000000000000000000602082015250565b600061285b602983611e60565b9150612866826127ff565b604082019050919050565b6000602082019050818103600083015261288a8161284e565b9050919050565b7f4f776e61626c653a206e6577206f776e657220697320746865207a65726f206160008201527f6464726573730000000000000000000000000000000000000000000000000000602082015250565b60006128ed602683611e60565b91506128f882612891565b604082019050919050565b6000602082019050818103600083015261291c816128e0565b9050919050565b7f4552433732313a207472616e736665722066726f6d20696e636f72726563742060008201527f6f776e6572000000000000000000000000000000000000000000000000000000602082015250565b600061297f602583611e60565b915061298a82612923565b604082019050919050565b600060208201905081810360008301526129ae81612972565b9050919050565b7f4552433732313a207472616e7366657220746f20746865207a65726f2061646460008201527f7265737300000000000000000000000000000000000000000000000000000000602082015250565b6000612a11602483611e60565b9150612a1c826129b5565b604082019050919050565b60006020820190508181036000830152612a4081612a04565b9050919050565b7f4e487b7100000000000000000000000000000000000000000000000000000000600052601160045260246000fd5b6000612a8182611e21565b9150612a8c83611e21565b9250828203905081811115612aa457612aa3612a47565b5b92915050565b6000612ab582611e21565b9150612ac083611e21565b9250828201905080821115612ad857612ad7612a47565b5b92915050565b7f4552433732313a206d696e7420746f20746865207a65726f2061646472657373600082015250565b6000612b14602083611e60565b9150612b1f82612ade565b602082019050919050565b60006020820190508181036000830152612b4381612b07565b9050919050565b7f4552433732313a20746f6b656e20616c7265616479206d696e74656400000000600082015250565b6000612b80601c83611e60565b9150612b8b82612b4a565b602082019050919050565b60006020820190508181036000830152612baf81612b73565b9050919050565b7f45524337323155524953746f726167653a2055524920736574206f66206e6f6e60008201527f6578697374656e7420746f6b656e000000000000000000000000000000000000602082015250565b6000612c12602e83611e60565b9150612c1d82612bb6565b604082019050919050565b60006020820190508181036000830152612c4181612c05565b9050919050565b60008190508160005260206000209050919050565b60006020601f8301049050919050565b600082821b905092915050565b600060088302612caa7fffffffffffffffffffffffffffffffffffffffffffffffffffffffffffffffff82612c6d565b612cb48683612c6d565b95508019841693508086168417925050509392505050565b6000819050919050565b6000612cf1612cec612ce784611e21565b612ccc565b611e21565b9050919050565b6000819050919050565b612d0b83612cd6565b612d1f612d1782612cf8565b848454612c7a565b825550505050565b600090565b612d34612d27565b612d3f818484612d02565b505050565b5b81811015612d6357612d58600082612d2c565b600181019050612d45565b5050565b601f821115612da857612d7981612c48565b612d8284612c5d565b81016020851015612d91578190505b612da5612d9d85612c5d565b830182612d44565b50505b505050565b600082821c905092915050565b6000612dcb60001984600802612dad565b1980831691505092915050565b6000612de48383612dba565b9150826002028217905092915050565b612dfd82611e55565b67ffffffffffffffff811115612e1657612e15612085565b5b612e208254612481565b612e2b828285612d67565b600060209050601f831160018114612e5e5760008415612e4c578287015190505b612e568582612dd8565b865550612ebe565b601f198416612e6c86612c48565b60005b82811015612e9457848901518255600182019150602085019450602081019050612e6f565b86831015612eb15784890151612ead601f891682612dba565b8355505b6001600288020188555050505b505050505050565b7f4f776e61626c653a2063616c6c6572206973206e6f7420746865206f776e6572600082015250565b6000612efc602083611e60565b9150612f0782612ec6565b602082019050919050565b60006020820190508181036000830152612f2b81612eef565b9050919050565b7f4552433732313a20617070726f766520746f2063616c6c657200000000000000600082015250565b6000612f68601983611e60565b9150612f7382612f32565b602082019050919050565b60006020820190508181036000830152612f9781612f5b565b9050919050565b7f4552433732313a207472616e7366657220746f206e6f6e20455243373231526560008201527f63656976657220696d706c656d656e7465720000000000000000000000000000602082015250565b6000612ffa603283611e60565b915061300582612f9e565b604082019050919050565b6000602082019050818103600083015261302981612fed565b9050919050565b600061303c8285612673565b91506130488284612673565b91508190509392505050565b600081519050919050565b600082825260208201905092915050565b600061307b82613054565b613085818561305f565b9350613095818560208601611e71565b61309e81611e9b565b840191505092915050565b60006080820190506130be6000830187611f92565b6130cb6020830186611f92565b6130d86040830185611e2b565b81810360608301526130ea8184613070565b905095945050505050565b60008151905061310481611d92565b92915050565b6000602082840312156131205761311f611d5c565b5b600061312e848285016130f5565b91505092915050565b600061314282611e21565b91507fffffffffffffffffffffffffffffffffffffffffffffffffffffffffffffffff820361317457613173612a47565b5b600182019050919050565b7f4e487b7100000000000000000000000000000000000000000000000000000000600052601260045260246000fd5b60006131b982611e21565b91506131c483611e21565b9250826131d4576131d361317f565b5b828204905092915050565b60006131ea82611e21565b91506131f583611e21565b9250826132055761320461317f565b5b828206905092915050565b7f4e487b7100000000000000000000000000000000000000000000000000000000600052603260045260246000fdfea26469706673582212205f2ce8fb2be834170f191b21e312b712dd97e9c31d55f9342e68cff752479c3364736f6c63430008110033",
  "linkReferences": {},
  "deployedLinkReferences": {}
}